{
  "address": "0xBc16bcfD79faad20e03975b8B75eeeA2Aa1662Cb",
  "abi": [
    {
      "inputs": [
        {
          "internalType": "address",
          "name": "_owner",
          "type": "address"
        },
        {
          "internalType": "address",
          "name": "_endpoint",
          "type": "address"
        },
        {
          "internalType": "uint32[]",
          "name": "_validatorDestIds",
          "type": "uint32[]"
        }
      ],
      "stateMutability": "nonpayable",
      "type": "constructor"
    },
    {
      "inputs": [
        {
          "internalType": "uint256",
          "name": "providedBlockNumber",
          "type": "uint256"
        },
        {
          "internalType": "uint256",
          "name": "currentBlockNumber",
          "type": "uint256"
        }
      ],
      "name": "BlockNumberTooOld",
      "type": "error"
    },
    {
      "inputs": [],
      "name": "InvalidDelegate",
      "type": "error"
    },
    {
      "inputs": [],
      "name": "InvalidEndpointCall",
      "type": "error"
    },
    {
      "inputs": [],
      "name": "LzTokenUnavailable",
      "type": "error"
    },
    {
      "inputs": [
        {
          "internalType": "uint32",
          "name": "eid",
          "type": "uint32"
        }
      ],
      "name": "NoPeer",
      "type": "error"
    },
    {
      "inputs": [
        {
          "internalType": "uint256",
          "name": "msgValue",
          "type": "uint256"
        }
      ],
      "name": "NotEnoughNative",
      "type": "error"
    },
    {
      "inputs": [
        {
          "internalType": "uint32",
          "name": "eid",
          "type": "uint32"
        },
        {
          "internalType": "bytes32",
          "name": "sender",
          "type": "bytes32"
        }
      ],
      "name": "OnlyPeer",
      "type": "error"
    },
    {
      "inputs": [
        {
          "internalType": "address",
          "name": "owner",
          "type": "address"
        }
      ],
      "name": "OwnableInvalidOwner",
      "type": "error"
    },
    {
      "inputs": [
        {
          "internalType": "address",
          "name": "account",
          "type": "address"
        }
      ],
      "name": "OwnableUnauthorizedAccount",
      "type": "error"
    },
    {
      "inputs": [
        {
          "internalType": "address",
          "name": "token",
          "type": "address"
        }
      ],
      "name": "SafeERC20FailedOperation",
      "type": "error"
    },
    {
      "anonymous": false,
      "inputs": [
        {
          "indexed": false,
          "internalType": "uint256",
          "name": "blockNumber",
          "type": "uint256"
        },
        {
          "indexed": false,
          "internalType": "bytes32",
          "name": "stateRoot",
          "type": "bytes32"
        },
        {
          "indexed": false,
          "internalType": "bytes32",
          "name": "blockHash",
          "type": "bytes32"
        }
      ],
      "name": "BlockHeaderAdded",
      "type": "event"
    },
    {
      "anonymous": false,
      "inputs": [
        {
          "indexed": false,
          "internalType": "uint256",
          "name": "blockNumber",
          "type": "uint256"
        }
      ],
      "name": "ChainBlockNumber",
      "type": "event"
    },
    {
      "anonymous": false,
      "inputs": [
        {
          "indexed": true,
          "internalType": "address",
          "name": "previousOwner",
          "type": "address"
        },
        {
          "indexed": true,
          "internalType": "address",
          "name": "newOwner",
          "type": "address"
        }
      ],
      "name": "OwnershipTransferred",
      "type": "event"
    },
    {
      "anonymous": false,
      "inputs": [
        {
          "indexed": false,
          "internalType": "uint32",
          "name": "eid",
          "type": "uint32"
        },
        {
          "indexed": false,
          "internalType": "bytes32",
          "name": "peer",
          "type": "bytes32"
        }
      ],
      "name": "PeerSet",
      "type": "event"
    },
    {
      "anonymous": false,
      "inputs": [
        {
          "indexed": false,
          "internalType": "uint256",
          "name": "blockNumber",
          "type": "uint256"
        }
      ],
      "name": "ProvidedBlockNumber",
      "type": "event"
    },
    {
      "anonymous": false,
      "inputs": [
        {
          "indexed": false,
          "internalType": "bytes32",
          "name": "blockHash",
          "type": "bytes32"
        }
      ],
      "name": "ReconstructedBlockHash",
      "type": "event"
    },
    {
      "anonymous": false,
      "inputs": [
        {
          "indexed": false,
          "internalType": "bytes32",
          "name": "blockHash",
          "type": "bytes32"
        }
      ],
      "name": "ReconstructedBlockHashFromRlp",
      "type": "event"
    },
    {
      "inputs": [
        {
          "internalType": "bytes",
          "name": "_rlpHeader",
          "type": "bytes"
        },
        {
          "internalType": "bytes",
          "name": "_options",
          "type": "bytes"
        }
      ],
      "name": "addBlockHeader",
      "outputs": [],
      "stateMutability": "payable",
      "type": "function"
    },
    {
      "inputs": [],
      "name": "endpoint",
      "outputs": [
        {
          "internalType": "contract ILayerZeroEndpointV2",
          "name": "",
          "type": "address"
        }
      ],
      "stateMutability": "view",
      "type": "function"
    },
    {
      "inputs": [
        {
          "components": [
            {
              "internalType": "bytes32",
              "name": "stateRoot",
              "type": "bytes32"
            },
            {
              "internalType": "uint256",
              "name": "blockNumber",
              "type": "uint256"
            },
            {
              "internalType": "bytes32",
              "name": "blockHash",
              "type": "bytes32"
            }
          ],
          "internalType": "struct StateRootProof",
          "name": "_proof",
          "type": "tuple"
        },
        {
          "internalType": "bytes",
          "name": "_options",
          "type": "bytes"
        }
      ],
      "name": "fullQuote",
      "outputs": [
        {
          "internalType": "uint256",
          "name": "total",
          "type": "uint256"
        }
      ],
      "stateMutability": "view",
      "type": "function"
    },
    {
      "inputs": [],
      "name": "oAppVersion",
      "outputs": [
        {
          "internalType": "uint64",
          "name": "senderVersion",
          "type": "uint64"
        },
        {
          "internalType": "uint64",
          "name": "receiverVersion",
          "type": "uint64"
        }
      ],
      "stateMutability": "view",
      "type": "function"
    },
    {
      "inputs": [],
      "name": "owner",
      "outputs": [
        {
          "internalType": "address",
          "name": "",
          "type": "address"
        }
      ],
      "stateMutability": "view",
      "type": "function"
    },
    {
      "inputs": [
        {
          "internalType": "uint32",
          "name": "eid",
          "type": "uint32"
        }
      ],
      "name": "peers",
      "outputs": [
        {
          "internalType": "bytes32",
          "name": "peer",
          "type": "bytes32"
        }
      ],
      "stateMutability": "view",
      "type": "function"
    },
    {
      "inputs": [
        {
          "internalType": "uint32",
          "name": "_dstEid",
          "type": "uint32"
        },
        {
          "internalType": "string",
          "name": "_message",
          "type": "string"
        },
        {
          "internalType": "bytes",
          "name": "_options",
          "type": "bytes"
        },
        {
          "internalType": "bool",
          "name": "_payInLzToken",
          "type": "bool"
        }
      ],
      "name": "quote",
      "outputs": [
        {
          "components": [
            {
              "internalType": "uint256",
              "name": "nativeFee",
              "type": "uint256"
            },
            {
              "internalType": "uint256",
              "name": "lzTokenFee",
              "type": "uint256"
            }
          ],
          "internalType": "struct MessagingFee",
          "name": "fee",
          "type": "tuple"
        }
      ],
      "stateMutability": "view",
      "type": "function"
    },
    {
      "inputs": [],
      "name": "renounceOwnership",
      "outputs": [],
      "stateMutability": "nonpayable",
      "type": "function"
    },
    {
      "inputs": [],
      "name": "savedBlockNumber",
      "outputs": [
        {
          "internalType": "uint256",
          "name": "",
          "type": "uint256"
        }
      ],
      "stateMutability": "view",
      "type": "function"
    },
    {
      "inputs": [
        {
          "internalType": "address",
          "name": "_delegate",
          "type": "address"
        }
      ],
      "name": "setDelegate",
      "outputs": [],
      "stateMutability": "nonpayable",
      "type": "function"
    },
    {
      "inputs": [
        {
          "internalType": "uint32",
          "name": "_eid",
          "type": "uint32"
        },
        {
          "internalType": "bytes32",
          "name": "_peer",
          "type": "bytes32"
        }
      ],
      "name": "setPeer",
      "outputs": [],
      "stateMutability": "nonpayable",
      "type": "function"
    },
    {
      "inputs": [
        {
          "internalType": "uint32[]",
          "name": "_validatorDestIds",
          "type": "uint32[]"
        }
      ],
      "name": "setValidatorDestIds",
      "outputs": [],
      "stateMutability": "nonpayable",
      "type": "function"
    },
    {
      "inputs": [
        {
          "internalType": "address",
          "name": "newOwner",
          "type": "address"
        }
      ],
      "name": "transferOwnership",
      "outputs": [],
      "stateMutability": "nonpayable",
      "type": "function"
    },
    {
      "inputs": [
        {
          "internalType": "uint256",
          "name": "",
          "type": "uint256"
        }
      ],
      "name": "validatorDestIds",
      "outputs": [
        {
          "internalType": "uint32",
          "name": "",
          "type": "uint32"
        }
      ],
      "stateMutability": "view",
      "type": "function"
    }
  ],
  "transactionHash": "0x90b88a72076eaecc02f5c89369f945bd8c87ebb397881d1a7572c969cee56dbc",
  "args": [
    "0x18917FD80068c7db1117B9cAFbF9eEb9fF29be08",
    "0x6EDCE65403992e310A62460808c4b910D972f10f",
    [
      40231,
      40245
    ]
  ],
  "numDeployments": 14,
  "solcInputHash": "fc6950ff82dc763f7a6e0ab38f8e71f1",
  "bytecode": "0x60a06040523480156200001157600080fd5b5060405162003064380380620030648339818101604052810190620000379190620005c0565b828282818384600073ffffffffffffffffffffffffffffffffffffffff168173ffffffffffffffffffffffffffffffffffffffff1603620000b25760006040517f1e4fbdf7000000000000000000000000000000000000000000000000000000008152600401620000a991906200064c565b60405180910390fd5b620000c381620001f760201b60201c565b508173ffffffffffffffffffffffffffffffffffffffff1660808173ffffffffffffffffffffffffffffffffffffffff1681525050600073ffffffffffffffffffffffffffffffffffffffff168173ffffffffffffffffffffffffffffffffffffffff16036200015f576040517fb586360400000000000000000000000000000000000000000000000000000000815260040160405180910390fd5b60805173ffffffffffffffffffffffffffffffffffffffff1663ca5eb5e1826040518263ffffffff1660e01b81526004016200019c91906200064c565b600060405180830381600087803b158015620001b757600080fd5b505af1158015620001cc573d6000803e3d6000fd5b5050505050508060029080519060200190620001ea929190620002bb565b5050505050505062000669565b60008060009054906101000a900473ffffffffffffffffffffffffffffffffffffffff169050816000806101000a81548173ffffffffffffffffffffffffffffffffffffffff021916908373ffffffffffffffffffffffffffffffffffffffff1602179055508173ffffffffffffffffffffffffffffffffffffffff168173ffffffffffffffffffffffffffffffffffffffff167f8be0079c531659141344cd1fd0a4f28419497f9722a3daafe3b4186f6b6457e060405160405180910390a35050565b828054828255906000526020600020906007016008900481019282156200035f5791602002820160005b838211156200032b57835183826101000a81548163ffffffff021916908363ffffffff1602179055509260200192600401602081600301049283019260010302620002e5565b80156200035d5782816101000a81549063ffffffff02191690556004016020816003010492830192600103026200032b565b505b5090506200036e919062000372565b5090565b5b808211156200038d57600081600090555060010162000373565b5090565b6000604051905090565b600080fd5b600080fd5b600073ffffffffffffffffffffffffffffffffffffffff82169050919050565b6000620003d282620003a5565b9050919050565b620003e481620003c5565b8114620003f057600080fd5b50565b6000815190506200040481620003d9565b92915050565b600080fd5b6000601f19601f8301169050919050565b7f4e487b7100000000000000000000000000000000000000000000000000000000600052604160045260246000fd5b6200045a826200040f565b810181811067ffffffffffffffff821117156200047c576200047b62000420565b5b80604052505050565b60006200049162000391565b90506200049f82826200044f565b919050565b600067ffffffffffffffff821115620004c257620004c162000420565b5b602082029050602081019050919050565b600080fd5b600063ffffffff82169050919050565b620004f381620004d8565b8114620004ff57600080fd5b50565b6000815190506200051381620004e8565b92915050565b6000620005306200052a84620004a4565b62000485565b90508083825260208201905060208402830185811115620005565762000555620004d3565b5b835b818110156200058357806200056e888262000502565b84526020840193505060208101905062000558565b5050509392505050565b600082601f830112620005a557620005a46200040a565b5b8151620005b784826020860162000519565b91505092915050565b600080600060608486031215620005dc57620005db6200039b565b5b6000620005ec86828701620003f3565b9350506020620005ff86828701620003f3565b925050604084015167ffffffffffffffff811115620006235762000622620003a0565b5b62000631868287016200058d565b9150509250925092565b6200064681620003c5565b82525050565b60006020820190506200066360008301846200063b565b92915050565b6080516129bc620006a8600039600081816103bb0152818161052701528181610acb015281816112a4015281816113dd01526114d801526129bc6000f3fe6080604052600436106100dd5760003560e01c8063af8906241161007f578063ca5eb5e111610059578063ca5eb5e1146102af578063eaece567146102d8578063f2fde38b146102f4578063f77e5dd31461031d576100dd565b8063af8906241461020a578063bb0b6a5314610247578063bfe0aa6d14610284576100dd565b80635e280f11116100bb5780635e280f1114610174578063715018a61461019f5780637ee1dcc7146101b65780638da5cb5b146101df576100dd565b806317442b70146100e2578063217fea441461010e5780633400288b1461014b575b600080fd5b3480156100ee57600080fd5b506100f761035a565b60405161010592919061179f565b60405180910390f35b34801561011a57600080fd5b5061013560048036038101906101309190611812565b610369565b604051610142919061185e565b60405180910390f35b34801561015757600080fd5b50610172600480360381019061016d91906118db565b6103a3565b005b34801561018057600080fd5b506101896103b9565b604051610196919061199a565b60405180910390f35b3480156101ab57600080fd5b506101b46103dd565b005b3480156101c257600080fd5b506101dd60048036038101906101d89190611b0e565b6103f1565b005b3480156101eb57600080fd5b506101f4610413565b6040516102019190611b78565b60405180910390f35b34801561021657600080fd5b50610231600480360381019061022c9190611cb1565b61043c565b60405161023e9190611d1c565b60405180910390f35b34801561025357600080fd5b5061026e60048036038101906102699190611d37565b6104ff565b60405161027b9190611d73565b60405180910390f35b34801561029057600080fd5b50610299610517565b6040516102a69190611d1c565b60405180910390f35b3480156102bb57600080fd5b506102d660048036038101906102d19190611dba565b61051d565b005b6102f260048036038101906102ed9190611e42565b6105b3565b005b34801561030057600080fd5b5061031b60048036038101906103169190611dba565b61084c565b005b34801561032957600080fd5b50610344600480360381019061033f9190611f9c565b6108d2565b6040516103519190612079565b60405180910390f35b60008060016000915091509091565b6002818154811061037957600080fd5b9060005260206000209060089182820401919006600402915054906101000a900463ffffffff1681565b6103ab610915565b6103b5828261099c565b5050565b7f000000000000000000000000000000000000000000000000000000000000000081565b6103e5610915565b6103ef60006109fd565b565b6103f9610915565b806002908051906020019061040f929190611647565b5050565b60008060009054906101000a900473ffffffffffffffffffffffffffffffffffffffff16905090565b60008083600001518460200151856040015160405160200161046093929190612094565b604051602081830303815290604052905060005b6002805490508110156104f757600060028281548110610497576104966120cb565b5b90600052602060002090600891828204019190066004029054906101000a900463ffffffff16905060006104ce8285886000610ac1565b90508060000151856104e09190612129565b9450505080806104ef9061215d565b915050610474565b505092915050565b60016020528060005260406000206000915090505481565b60035481565b610525610915565b7f000000000000000000000000000000000000000000000000000000000000000073ffffffffffffffffffffffffffffffffffffffff1663ca5eb5e1826040518263ffffffff1660e01b815260040161057e9190611b78565b600060405180830381600087803b15801561059857600080fd5b505af11580156105ac573d6000803e3d6000fd5b5050505050565b600061060a61060586868080601f016020809104026020016040519081016040528093929190818152602001838380828437600081840152601f19601f82011690508083019250505050505050610ba4565b610bd2565b9050600061063282600381518110610625576106246120cb565b5b6020026020010151610ce7565b61063b906121e2565b9050600061066383600881518110610656576106556120cb565b5b6020026020010151610d7a565b90506000814090507f6a57083e898b7631d5002e1519b2be4cdbfe30b9e3cd7441e7fd303fc4ed2ba98160405161069a9190611d73565b60405180910390a17faba1a21d651b174c3571093bf023943a9adc9dd350a22b678247b2911847bdde88886040516106d3929190612279565b60405180910390206040516106e89190611d73565b60405180910390a1808888604051610701929190612279565b604051809103902014610749576040517f08c379a0000000000000000000000000000000000000000000000000000000008152600401610740906122ef565b60405180910390fd5b600060035414610798578160035410610797576040517f08c379a000000000000000000000000000000000000000000000000000000000815260040161078e90612381565b60405180910390fd5b5b8160038190555061080760405180606001604052808581526020018481526020018381525087878080601f016020809104026020016040519081016040528093929190818152602001838380828437600081840152601f19601f82011690508083019250505050505050610dd4565b7fde1d402d019b9844d7cc9dd2d6b11feb209fd1cc184ffb677af4c0216eaae6fb82848360405161083a939291906123a1565b60405180910390a15050505050505050565b610854610915565b600073ffffffffffffffffffffffffffffffffffffffff168173ffffffffffffffffffffffffffffffffffffffff16036108c65760006040517f1e4fbdf70000000000000000000000000000000000000000000000000000000081526004016108bd9190611b78565b60405180910390fd5b6108cf816109fd565b50565b6108da6116f7565b6000846040516020016108ed9190612446565b604051602081830303815290604052905061090a86828686610ac1565b915050949350505050565b61091d610e90565b73ffffffffffffffffffffffffffffffffffffffff1661093b610413565b73ffffffffffffffffffffffffffffffffffffffff161461099a5761095e610e90565b6040517f118cdaa70000000000000000000000000000000000000000000000000000000081526004016109919190611b78565b60405180910390fd5b565b80600160008463ffffffff1663ffffffff168152602001908152602001600020819055507f238399d427b947898edb290f5ff0f9109849b1c3ba196a42e35f00c50a54b98b82826040516109f1929190612468565b60405180910390a15050565b60008060009054906101000a900473ffffffffffffffffffffffffffffffffffffffff169050816000806101000a81548173ffffffffffffffffffffffffffffffffffffffff021916908373ffffffffffffffffffffffffffffffffffffffff1602179055508173ffffffffffffffffffffffffffffffffffffffff168173ffffffffffffffffffffffffffffffffffffffff167f8be0079c531659141344cd1fd0a4f28419497f9722a3daafe3b4186f6b6457e060405160405180910390a35050565b610ac96116f7565b7f000000000000000000000000000000000000000000000000000000000000000073ffffffffffffffffffffffffffffffffffffffff1663ddc28c586040518060a001604052808863ffffffff168152602001610b2589610e98565b8152602001878152602001868152602001851515815250306040518363ffffffff1660e01b8152600401610b5a929190612585565b6040805180830381865afa158015610b76573d6000803e3d6000fd5b505050506040513d601f19601f82011682018060405250810190610b9a919061261a565b9050949350505050565b610bac611711565b600060208301905060405180604001604052808451815260200182815250915050919050565b6060610bdd82610f0d565b610be657600080fd5b6000610bf183610f5a565b905060008167ffffffffffffffff811115610c0f57610c0e6119cb565b5b604051908082528060200260200182016040528015610c4857816020015b610c35611711565b815260200190600190039081610c2d5790505b5090506000610c5a8560200151610fe7565b8560200151610c699190612129565b9050600080600090505b84811015610cda57610c84836110a6565b9150604051806040016040528083815260200184815250848281518110610cae57610cad6120cb565b5b60200260200101819052508183610cc59190612129565b92508080610cd29061215d565b915050610c73565b5082945050505050919050565b60606000826000015111610cfa57600080fd5b600080610d0684611182565b9150915060008167ffffffffffffffff811115610d2657610d256119cb565b5b6040519080825280601f01601f191660200182016040528015610d585781602001600182028036833780820191505090505b5090506000816020019050610d6e8482856111cc565b81945050505050919050565b6000808260000151118015610d9457506021826000015111155b610d9d57600080fd5b600080610da984611182565b915091506000825190506020821015610dc957816020036101000a810490505b809350505050919050565b6000826000015183602001518460400151604051602001610df793929190612094565b604051602081830303815290604052905060005b600280549050811015610e8a57600060028281548110610e2e57610e2d6120cb565b5b90600052602060002090600891828204019190066004029054906101000a900463ffffffff1690506000610e658285876000610ac1565b9050610e74828587843361126e565b5050508080610e829061215d565b915050610e0b565b50505050565b600033905090565b600080600160008463ffffffff1663ffffffff1681526020019081526020016000205490506000801b8103610f0457826040517ff6ff4fb7000000000000000000000000000000000000000000000000000000008152600401610efb919061185e565b60405180910390fd5b80915050919050565b600080826000015103610f235760009050610f55565b60008083602001519050805160001a915060c060ff168260ff161015610f4e57600092505050610f55565b6001925050505b919050565b600080826000015103610f705760009050610fe2565b600080610f808460200151610fe7565b8460200151610f8f9190612129565b9050600084600001518560200151610fa79190612129565b90505b80821015610fdb57610fbb826110a6565b82610fc69190612129565b91508280610fd39061215d565b935050610faa565b8293505050505b919050565b600080825160001a9050608060ff168110156110075760009150506110a1565b60b860ff1681108061102c575060c060ff16811015801561102b575060f860ff1681105b5b1561103b5760019150506110a1565b60c060ff168110156110765760018060b86110569190612654565b60ff16826110649190612689565b61106e9190612129565b9150506110a1565b60018060f86110859190612654565b60ff16826110939190612689565b61109d9190612129565b9150505b919050565b6000806000835160001a9050608060ff168110156110c75760019150611178565b60b860ff168110156110f6576001608060ff16826110e59190612689565b6110ef9190612129565b9150611177565b60c060ff168110156111265760b78103600185019450806020036101000a85510460018201810193505050611176565b60f860ff1681101561115557600160c060ff16826111449190612689565b61114e9190612129565b9150611175565b60f78103600185019450806020036101000a855104600182018101935050505b5b5b5b8192505050919050565b60008060006111948460200151610fe7565b905060008185602001516111a89190612129565b905060008286600001516111bc9190612689565b9050818194509450505050915091565b6000810315611269575b602060ff1681106112205782518252602060ff16836111f59190612129565b9250602060ff16826112079190612129565b9150602060ff16816112199190612689565b90506111d6565b6000811115611268576000600182602060ff1661123d9190612689565b61010061124a91906127f0565b6112549190612689565b905080198451168184511681811785525050505b5b505050565b61127661172b565b6000611285846000015161138a565b90506000846020015111156112a2576112a184602001516113d9565b5b7f000000000000000000000000000000000000000000000000000000000000000073ffffffffffffffffffffffffffffffffffffffff16632637a450826040518060a001604052808b63ffffffff1681526020016112ff8c610e98565b81526020018a815260200189815260200160008960200151111515815250866040518463ffffffff1660e01b815260040161133b929190612585565b60806040518083038185885af1158015611359573d6000803e3d6000fd5b50505050506040513d601f19601f8201168201806040525081019061137e91906128e0565b91505095945050505050565b6000813410156113d157346040517f9f7041200000000000000000000000000000000000000000000000000000000081526004016113c89190611d1c565b60405180910390fd5b819050919050565b60007f000000000000000000000000000000000000000000000000000000000000000073ffffffffffffffffffffffffffffffffffffffff1663e4fe1d946040518163ffffffff1660e01b8152600401602060405180830381865afa158015611446573d6000803e3d6000fd5b505050506040513d601f19601f8201168201806040525081019061146a9190612922565b9050600073ffffffffffffffffffffffffffffffffffffffff168173ffffffffffffffffffffffffffffffffffffffff16036114d2576040517f5373352a00000000000000000000000000000000000000000000000000000000815260040160405180910390fd5b61151f337f0000000000000000000000000000000000000000000000000000000000000000848473ffffffffffffffffffffffffffffffffffffffff16611523909392919063ffffffff16565b5050565b61159f848573ffffffffffffffffffffffffffffffffffffffff166323b872dd8686866040516024016115589392919061294f565b604051602081830303815290604052915060e01b6020820180517bffffffffffffffffffffffffffffffffffffffffffffffffffffffff83818316178352505050506115a5565b50505050565b600080602060008451602086016000885af1806115c8576040513d6000823e3d81fd5b3d9250600051915050600082146115e35760018114156115ff565b60008473ffffffffffffffffffffffffffffffffffffffff163b145b1561164157836040517f5274afe70000000000000000000000000000000000000000000000000000000081526004016116389190611b78565b60405180910390fd5b50505050565b828054828255906000526020600020906007016008900481019282156116e65791602002820160005b838211156116b457835183826101000a81548163ffffffff021916908363ffffffff1602179055509260200192600401602081600301049283019260010302611670565b80156116e45782816101000a81549063ffffffff02191690556004016020816003010492830192600103026116b4565b505b5090506116f3919061175f565b5090565b604051806040016040528060008152602001600081525090565b604051806040016040528060008152602001600081525090565b604051806060016040528060008019168152602001600067ffffffffffffffff1681526020016117596116f7565b81525090565b5b80821115611778576000816000905550600101611760565b5090565b600067ffffffffffffffff82169050919050565b6117998161177c565b82525050565b60006040820190506117b46000830185611790565b6117c16020830184611790565b9392505050565b6000604051905090565b600080fd5b600080fd5b6000819050919050565b6117ef816117dc565b81146117fa57600080fd5b50565b60008135905061180c816117e6565b92915050565b600060208284031215611828576118276117d2565b5b6000611836848285016117fd565b91505092915050565b600063ffffffff82169050919050565b6118588161183f565b82525050565b6000602082019050611873600083018461184f565b92915050565b6118828161183f565b811461188d57600080fd5b50565b60008135905061189f81611879565b92915050565b6000819050919050565b6118b8816118a5565b81146118c357600080fd5b50565b6000813590506118d5816118af565b92915050565b600080604083850312156118f2576118f16117d2565b5b600061190085828601611890565b9250506020611911858286016118c6565b9150509250929050565b600073ffffffffffffffffffffffffffffffffffffffff82169050919050565b6000819050919050565b600061196061195b6119568461191b565b61193b565b61191b565b9050919050565b600061197282611945565b9050919050565b600061198482611967565b9050919050565b61199481611979565b82525050565b60006020820190506119af600083018461198b565b92915050565b600080fd5b6000601f19601f8301169050919050565b7f4e487b7100000000000000000000000000000000000000000000000000000000600052604160045260246000fd5b611a03826119ba565b810181811067ffffffffffffffff82111715611a2257611a216119cb565b5b80604052505050565b6000611a356117c8565b9050611a4182826119fa565b919050565b600067ffffffffffffffff821115611a6157611a606119cb565b5b602082029050602081019050919050565b600080fd5b6000611a8a611a8584611a46565b611a2b565b90508083825260208201905060208402830185811115611aad57611aac611a72565b5b835b81811015611ad65780611ac28882611890565b845260208401935050602081019050611aaf565b5050509392505050565b600082601f830112611af557611af46119b5565b5b8135611b05848260208601611a77565b91505092915050565b600060208284031215611b2457611b236117d2565b5b600082013567ffffffffffffffff811115611b4257611b416117d7565b5b611b4e84828501611ae0565b91505092915050565b6000611b628261191b565b9050919050565b611b7281611b57565b82525050565b6000602082019050611b8d6000830184611b69565b92915050565b600080fd5b600060608284031215611bae57611bad611b93565b5b611bb86060611a2b565b90506000611bc8848285016118c6565b6000830152506020611bdc848285016117fd565b6020830152506040611bf0848285016118c6565b60408301525092915050565b600080fd5b600067ffffffffffffffff821115611c1c57611c1b6119cb565b5b611c25826119ba565b9050602081019050919050565b82818337600083830152505050565b6000611c54611c4f84611c01565b611a2b565b905082815260208101848484011115611c7057611c6f611bfc565b5b611c7b848285611c32565b509392505050565b600082601f830112611c9857611c976119b5565b5b8135611ca8848260208601611c41565b91505092915050565b60008060808385031215611cc857611cc76117d2565b5b6000611cd685828601611b98565b925050606083013567ffffffffffffffff811115611cf757611cf66117d7565b5b611d0385828601611c83565b9150509250929050565b611d16816117dc565b82525050565b6000602082019050611d316000830184611d0d565b92915050565b600060208284031215611d4d57611d4c6117d2565b5b6000611d5b84828501611890565b91505092915050565b611d6d816118a5565b82525050565b6000602082019050611d886000830184611d64565b92915050565b611d9781611b57565b8114611da257600080fd5b50565b600081359050611db481611d8e565b92915050565b600060208284031215611dd057611dcf6117d2565b5b6000611dde84828501611da5565b91505092915050565b600080fd5b60008083601f840112611e0257611e016119b5565b5b8235905067ffffffffffffffff811115611e1f57611e1e611de7565b5b602083019150836001820283011115611e3b57611e3a611a72565b5b9250929050565b60008060008060408587031215611e5c57611e5b6117d2565b5b600085013567ffffffffffffffff811115611e7a57611e796117d7565b5b611e8687828801611dec565b9450945050602085013567ffffffffffffffff811115611ea957611ea86117d7565b5b611eb587828801611dec565b925092505092959194509250565b600067ffffffffffffffff821115611ede57611edd6119cb565b5b611ee7826119ba565b9050602081019050919050565b6000611f07611f0284611ec3565b611a2b565b905082815260208101848484011115611f2357611f22611bfc565b5b611f2e848285611c32565b509392505050565b600082601f830112611f4b57611f4a6119b5565b5b8135611f5b848260208601611ef4565b91505092915050565b60008115159050919050565b611f7981611f64565b8114611f8457600080fd5b50565b600081359050611f9681611f70565b92915050565b60008060008060808587031215611fb657611fb56117d2565b5b6000611fc487828801611890565b945050602085013567ffffffffffffffff811115611fe557611fe46117d7565b5b611ff187828801611f36565b935050604085013567ffffffffffffffff811115612012576120116117d7565b5b61201e87828801611c83565b925050606061202f87828801611f87565b91505092959194509250565b612044816117dc565b82525050565b604082016000820151612060600085018261203b565b506020820151612073602085018261203b565b50505050565b600060408201905061208e600083018461204a565b92915050565b60006060820190506120a96000830186611d64565b6120b66020830185611d0d565b6120c36040830184611d64565b949350505050565b7f4e487b7100000000000000000000000000000000000000000000000000000000600052603260045260246000fd5b7f4e487b7100000000000000000000000000000000000000000000000000000000600052601160045260246000fd5b6000612134826117dc565b915061213f836117dc565b9250828201905080821115612157576121566120fa565b5b92915050565b6000612168826117dc565b91507fffffffffffffffffffffffffffffffffffffffffffffffffffffffffffffffff820361219a576121996120fa565b5b600182019050919050565b600081519050919050565b6000819050602082019050919050565b60006121cc82516118a5565b80915050919050565b600082821b905092915050565b60006121ed826121a5565b826121f7846121b0565b9050612202816121c0565b925060208210156122425761223d7fffffffffffffffffffffffffffffffffffffffffffffffffffffffffffffffff836020036008026121d5565b831692505b5050919050565b600081905092915050565b60006122608385612249565b935061226d838584611c32565b82840190509392505050565b6000612286828486612254565b91508190509392505050565b600082825260208201905092915050565b7f496e76616c696420626c6f636b20686173680000000000000000000000000000600082015250565b60006122d9601283612292565b91506122e4826122a3565b602082019050919050565b60006020820190508181036000830152612308816122cc565b9050919050565b7f476976656e20426c6f636b20686561646572206973206f6c646572207468616e60008201527f20736176656420626c6f636b0000000000000000000000000000000000000000602082015250565b600061236b602c83612292565b91506123768261230f565b604082019050919050565b6000602082019050818103600083015261239a8161235e565b9050919050565b60006060820190506123b66000830186611d0d565b6123c36020830185611d64565b6123d06040830184611d64565b949350505050565b600081519050919050565b60005b838110156124015780820151818401526020810190506123e6565b60008484015250505050565b6000612418826123d8565b6124228185612292565b93506124328185602086016123e3565b61243b816119ba565b840191505092915050565b60006020820190508181036000830152612460818461240d565b905092915050565b600060408201905061247d600083018561184f565b61248a6020830184611d64565b9392505050565b61249a8161183f565b82525050565b6124a9816118a5565b82525050565b600082825260208201905092915050565b60006124cb826121a5565b6124d581856124af565b93506124e58185602086016123e3565b6124ee816119ba565b840191505092915050565b61250281611f64565b82525050565b600060a0830160008301516125206000860182612491565b50602083015161253360208601826124a0565b506040830151848203604086015261254b82826124c0565b9150506060830151848203606086015261256582826124c0565b915050608083015161257a60808601826124f9565b508091505092915050565b6000604082019050818103600083015261259f8185612508565b90506125ae6020830184611b69565b9392505050565b6000815190506125c4816117e6565b92915050565b6000604082840312156125e0576125df611b93565b5b6125ea6040611a2b565b905060006125fa848285016125b5565b600083015250602061260e848285016125b5565b60208301525092915050565b6000604082840312156126305761262f6117d2565b5b600061263e848285016125ca565b91505092915050565b600060ff82169050919050565b600061265f82612647565b915061266a83612647565b9250828203905060ff811115612683576126826120fa565b5b92915050565b6000612694826117dc565b915061269f836117dc565b92508282039050818111156126b7576126b66120fa565b5b92915050565b60008160011c9050919050565b6000808291508390505b6001851115612714578086048111156126f0576126ef6120fa565b5b60018516156126ff5780820291505b808102905061270d856126bd565b94506126d4565b94509492505050565b60008261272d57600190506127e9565b8161273b57600090506127e9565b8160018114612751576002811461275b5761278a565b60019150506127e9565b60ff84111561276d5761276c6120fa565b5b8360020a915084821115612784576127836120fa565b5b506127e9565b5060208310610133831016604e8410600b84101617156127bf5782820a9050838111156127ba576127b96120fa565b5b6127e9565b6127cc84848460016126ca565b925090508184048111156127e3576127e26120fa565b5b81810290505b9392505050565b60006127fb826117dc565b9150612806836117dc565b92506128337fffffffffffffffffffffffffffffffffffffffffffffffffffffffffffffffff848461271d565b905092915050565b60008151905061284a816118af565b92915050565b6128598161177c565b811461286457600080fd5b50565b60008151905061287681612850565b92915050565b60006080828403121561289257612891611b93565b5b61289c6060611a2b565b905060006128ac8482850161283b565b60008301525060206128c084828501612867565b60208301525060406128d4848285016125ca565b60408301525092915050565b6000608082840312156128f6576128f56117d2565b5b60006129048482850161287c565b91505092915050565b60008151905061291c81611d8e565b92915050565b600060208284031215612938576129376117d2565b5b60006129468482850161290d565b91505092915050565b60006060820190506129646000830186611b69565b6129716020830185611b69565b61297e6040830184611d0d565b94935050505056fea26469706673582212206548b4ddd62e035445d3731b3594ff2a7f408c0c852ddcb16dc3d70ac432540764736f6c63430008140033",
  "devdoc": {
    "errors": {
      "OwnableInvalidOwner(address)": [
        {
          "details": "The owner is not a valid owner account. (eg. `address(0)`)"
        }
      ],
      "OwnableUnauthorizedAccount(address)": [
        {
          "details": "The caller account is not authorized to perform an operation."
        }
      ],
      "SafeERC20FailedOperation(address)": [
        {
          "details": "An operation with an ERC-20 token failed."
        }
      ]
    },
    "kind": "dev",
    "methods": {
      "fullQuote((bytes32,uint256,bytes32),bytes)": {
        "params": {
          "_options": "Additional options for the message.",
          "_proof": "The state root proof."
        },
        "returns": {
          "total": "The total fee for the message."
        }
      },
      "oAppVersion()": {
        "details": "Providing 0 as the default for OAppReceiver version. Indicates that the OAppReceiver is not implemented. ie. this is a SEND only OApp.If the OApp uses both OAppSender and OAppReceiver, then this needs to be override returning the correct versions",
        "returns": {
          "receiverVersion": "The version of the OAppReceiver.sol contract.",
          "senderVersion": "The version of the OAppSender.sol contract."
        }
      },
      "owner()": {
        "details": "Returns the address of the current owner."
      },
      "quote(uint32,string,bytes,bool)": {
        "params": {
          "_dstEid": "Destination chain's endpoint ID.",
          "_message": "The message.",
          "_payInLzToken": "Whether to return fee in ZRO token."
        },
        "returns": {
          "fee": "A `MessagingFee` struct containing the calculated gas fee in either the native token or ZRO token."
        }
      },
      "renounceOwnership()": {
        "details": "Leaves the contract without owner. It will not be possible to call `onlyOwner` functions. Can only be called by the current owner. NOTE: Renouncing ownership will leave the contract without an owner, thereby disabling any functionality that is only available to the owner."
      },
      "setDelegate(address)": {
        "details": "Only the owner/admin of the OApp can call this function.Provides the ability for a delegate to set configs, on behalf of the OApp, directly on the Endpoint contract.",
        "params": {
          "_delegate": "The address of the delegate to be set."
        }
      },
      "setPeer(uint32,bytes32)": {
        "details": "Only the owner/admin of the OApp can call this function.Indicates that the peer is trusted to send LayerZero messages to this OApp.Set this to bytes32(0) to remove the peer address.Peer is a bytes32 to accommodate non-evm chains.",
        "params": {
          "_eid": "The endpoint ID.",
          "_peer": "The address of the peer to be associated with the corresponding endpoint."
        }
      },
      "transferOwnership(address)": {
        "details": "Transfers ownership of the contract to a new account (`newOwner`). Can only be called by the current owner."
      }
    },
    "version": 1
  },
  "userdoc": {
    "kind": "user",
    "methods": {
      "endpoint()": {
        "notice": "Retrieves the LayerZero endpoint associated with the OApp."
      },
      "fullQuote((bytes32,uint256,bytes32),bytes)": {
        "notice": "Quotes the gas needed to pay for the full omnichain transaction in native gas."
      },
      "oAppVersion()": {
        "notice": "Retrieves the OApp version information."
      },
      "peers(uint32)": {
        "notice": "Retrieves the peer (OApp) associated with a corresponding endpoint."
      },
      "quote(uint32,string,bytes,bool)": {
        "notice": "Quotes the gas needed to pay for the full omnichain transaction in native gas or ZRO token."
      },
      "setDelegate(address)": {
        "notice": "Sets the delegate address for the OApp."
      },
      "setPeer(uint32,bytes32)": {
        "notice": "Sets the peer address (OApp instance) for a corresponding endpoint."
      }
    },
    "version": 1
  },
  "storageLayout": {
    "storage": [
      {
        "astId": 1072,
        "contract": "contracts/StateRootValidator.sol:StateRootValidator",
        "label": "_owner",
        "offset": 0,
        "slot": "0",
        "type": "t_address"
      },
      {
        "astId": 703,
        "contract": "contracts/StateRootValidator.sol:StateRootValidator",
        "label": "peers",
        "offset": 0,
        "slot": "1",
        "type": "t_mapping(t_uint32,t_bytes32)"
      },
      {
        "astId": 1847,
        "contract": "contracts/StateRootValidator.sol:StateRootValidator",
        "label": "validatorDestIds",
        "offset": 0,
        "slot": "2",
        "type": "t_array(t_uint32)dyn_storage"
      },
      {
        "astId": 2077,
        "contract": "contracts/StateRootValidator.sol:StateRootValidator",
        "label": "savedBlockNumber",
        "offset": 0,
        "slot": "3",
        "type": "t_uint256"
      }
    ],
    "types": {
      "t_address": {
        "encoding": "inplace",
        "label": "address",
        "numberOfBytes": "20"
      },
      "t_array(t_uint32)dyn_storage": {
        "base": "t_uint32",
        "encoding": "dynamic_array",
        "label": "uint32[]",
        "numberOfBytes": "32"
      },
      "t_bytes32": {
        "encoding": "inplace",
        "label": "bytes32",
        "numberOfBytes": "32"
      },
      "t_mapping(t_uint32,t_bytes32)": {
        "encoding": "mapping",
        "key": "t_uint32",
        "label": "mapping(uint32 => bytes32)",
        "numberOfBytes": "32",
        "value": "t_bytes32"
      },
      "t_uint256": {
        "encoding": "inplace",
        "label": "uint256",
        "numberOfBytes": "32"
      },
      "t_uint32": {
        "encoding": "inplace",
        "label": "uint32",
        "numberOfBytes": "4"
      }
    }
  }
}